:100000000C94BB020C944F130C9402030C94020347
:100010000C9402030C9402030C9402030C9402034C
:100020000C9402030C9402030C9494260C946627FF
:100030000C9494210C9402030C9402030C9402037C
:100040000C9402030C9402030C9402030C9402031C
:100050000C9402030C94ED210C9402030C94020303
:100060000C9402030C9402030C9402030C940203FC
:100070000C9402030C9402030C9402030C940203EC
:100080000C9402030C9402030C9402030C940203DC
:100090000C9402030C9402030C9402030C940203CC
:1000A0000C9402030C9402030C94020349174917A1
:1000B0007B177B17C817E61707190719F11786185A
:1000C00097189718F718071907190019A719A719EA
:1000D000B919B919B019B919B919B919A719A719BD
:1000E000B519B919B919B519D327FA27F228FA277A
:1000F000F22846286928F228C028CF2835421E0059
:100100001F0020002100220001512B0014001A00C2
:100110000800150017002F003161040016000700C9
:1001200009000A004B43E1001D001B0006001900F6
:1001300005004E002900570056005564E3002A00D0
:100140004C002D42270026002500240023000151E9
:100150002E00130012000C0018001C0030003400A8
:1001600033000F000E000D000B004D43E50038007A
:1001700037003600100011004A004F0052005100B5
:100180005000E6002C00280001003A003B003C0033
:100190003D003E00010001001E021F022F0230023E
:1001A000310201000100200221022F003000350041
:1001B000010001002202230226022702350201006B
:1001C0000100010001000100010001000100000028
:1001D00043004200410040003F0001000000560083
:1001E000610060005F0054000100000057005E00E5
:1001F0005D005C0055000100000058005B005A00E3
:100200005900000001000000580063006200620015
:1002100001000100010001000100010001000100D6
:10022000010000000000ED000000F90000000100E6
:100230000000EF00EE00F000FA00000001000000F6
:1002400000000000000000000000010000000000AD
:1002500000000000F100F2000100010001000100B7
:10026000010001000100010000000000000000008A
:10027000000000000100000000004F00520051008B
:10028000500000000000000000000000000000001E
:10029000010000000000000000000000010001005B
:1002A00000003A003B003C003D003E00C65C000000
:1002B000005CCE5CC35CC45CC75C00000000000056
:1002C000000000000000000001000000000000002D
:1002D000000000000000000000000000000000001E
:1002E0000000000000000000430042004100400008
:1002F0003F00C95C000000000000CA5CCB5CC85C29
:1003000000000000000000000000000000000100EC
:1003100000000000000000000000000000000000DD
:1003200000000000000000000000000000010101CA
:1003300001010101010102020202020202020203A2
:100340000303030303030304040404040404050572
:100350000505050606060606070707070708080835
:1003600008090909090A0A0A0B0B0B0C0C0C0D0DE4
:100370000D0E0E0E0F0F0F1010111111121213137C
:100380001414151516161717181819191A1A1B1BF5
:100390001C1D1D1E1E1F2020212222232424252651
:1003A00026272829292A2B2C2D2D2E2F3031323289
:1003B000333435363738393A3B3C3D3E3F40414295
:1003C000434445464748494A4C4D4E4F505153547B
:1003D000555658595A5B5D5E5F616264656668692F
:1003E0006B6C6D6F7072737577787A7B7D7E8082AF
:1003F000838587888A8C8E8F91939596989A9C9EF8
:10040000A0A2A3A5A7A9ABADAFB1B3B5B7BABCBE07
:10041000C0C2C4C6C9CBCDCFD1D4D6D8DBDDDFE2D4
:10042000E4E7E9EBEEF0F3F5F8FAFDFF26035400FC
:100430006800650020005200650064006F007800CD
:1004400020004B006500790062006F0061007200BF
:10045000640000001403460061006C00620061004B
:1004600074006500630068000000040309040902C9
:100470003B00020100A0FA09040000010301010091
:100480000921110100012240000705810308000A2B
:1004900009040100010300000009211101000122EB
:1004A0007B000705820320000A12011001000000F2
:1004B00008444D445200010102000105010902A156
:1004C0000185020901A10005091901290815002566
:1004D0000195087501810205010930093115812551
:1004E0007F95027508810609381581257F9501756C
:1004F000088106050C0A38021581257F95017508CB
:100500008106C0C005010980A101850319012AB730
:1005100000150126B700950175108100C0050C0972
:1005200001A101850419012AA002150126A0029546
:100530000175108100C005010906A101050719E038
:1005400029E71500250195087501810295017508B7
:1005500081010507190029FF150026FF0095067582
:100560000881000508190129059505750191029575
:100570000175039101C011241FBECFEFDAE0DEBF89
:10058000CDBF04B603FE27C08091DA029091DB0252
:10059000A091DC02B091DD028730904BA740B04BB8
:1005A000D1F41092DA021092DB021092DC02109267
:1005B000DD0214BE84B7877F84BF0FB6F894A89578
:1005C00080916000886180936000109260000FBE8F
:1005D000E0E0F8E3099511E0A0E0B1E0E0E6F3E542
:1005E00002C005900D92AA3AB107D9F722E0AAEA13
:1005F000B1E001C01D92AA3DB207E1F70E94CE23EF
:100600000C94AE290C9400000C941C0681E0089513
:1006100081E008950C94080308950C940C031F9333
:10062000CF93DF9300D000D01F92CDB7DEB74983C0
:100630005A836B833091F70189819A81311114C0FB
:10064000662359F0222349F00E94E01E182F682FDC
:1006500089819A810E94891E03C00E94B41E182FAE
:1006600069817A81812F04C00E94E01E69817A81AC
:100670000F900F900F900F900F90DF91CF911F91DF
:100680000C94D903FC01262F408151816281738132
:1006900084810C940F03CF93DF93EC0160E00E9400
:1006A0004203BE01DF91CF910C940D030E94E4053B
:1006B0000C9404030C941A0608950E9495190E9444
:1006C0005C032FEF84E39CE0215080409040E1F7F1
:1006D00000C000000C9454220F931F93CF93DF931C
:1006E0008C0161E00E944203EC01B8010E940A0300
:1006F000882309F444C0B801CE010E947A108823EF
:10070000F1F1B801CE010E94CC108823C1F1B801EB
:10071000CE010E94F711882391F1B801CE010E9409
:10072000650F882361F1F8018281882309F1CB35B7
:100730008DE5D807C1F050F4C115FCE5DF0781F065
:10074000CF3DDC45A9F40E94EB2019C0CC35EDE586
:10075000DE0761F0CD35DD4559F40E94731F08C0F6
:100760000E945D030CC00E947C1F02C00E947F1F7C
:10077000C801DF91CF911F910F910C94060380E087
:10078000DF91CF911F910F91089508950C94C503A7
:1007900081E008950C94C803CF93C82F0E94C6032C
:1007A0008C2F0E94CA03CF91089580E090E00895B5
:1007B000089526E4829FC0011124FC0127E0729F66
:1007C000E00DF11D1124E60FF11DEE0FFF1FE450A7
:1007D000FF4F859194910895880F991FFC01E45D66
:1007E000FC4F859194910895CF93DF930E94D90394
:1007F0000E940C05EC018115904508F041C0C1151F
:1008000080E4D80708F0D1C0C83ED10510F5C03E3D
:10081000D10508F0FDC0C83AD10578F4C53AD10534
:1008200008F0A2C0C130D10509F4F2C008F4EEC04E
:10083000C430D10508F0ECC0E9C0CF3BD10508F4C5
:100840009BC0C03CD10508F4E1C0CE01805C910999
:100850009EC0C11590E2D90758F4C11521E0D20716
:1008600008F0D6C0CD3ED10508F4D0C0D065D0C0C8
:10087000C11580E3D80708F08EC0CE019F7087C0F5
:10088000C11595E5D90708F043C0C11524E5D20785
:1008900008F0A2C0C11582E5D80708F5C11591E599
:1008A000D90708F085C0CE0174E0969587957A95B2
:1008B000E1F783709C2F937021E030E002C0220F9B
:1008C000331F9A95E2F73C68382BCF70C695C695D2
:1008D00080E2C89FE0011124C22BD32B99C09E0156
:1008E000237033278C2F86958695C115D34508F044
:1008F00064C0C1E0D0E002C0CC0FDD1F2A95E2F752
:1009000020E2829FC0011124C82BD92BDC6880C053
:10091000C11529E5D207A0F4C11588E5D80708F06C
:1009200060C0C11596E5D90708F070C08C2F0E94F1
:10093000A0058F71C82FD0E0DC2FCC27D06268C013
:10094000C1152AE5D20708F451C0CE019056811591
:10095000904208F05BC08D2F8F710E94A005DD27AB
:10096000D0628F71D82B54C0C55AD0E0C75ADE4F21
:10097000C881D0E0D0644CC0C85AD0E0CC0FDD1F95
:10098000C55DDE4F0990D881C02DD46441C00E945E
:10099000EC03EC013DC0CE019927D3FF03C0EC016D
:1009A000D86C36C0EC01D06C33C0DF70D06A30C078
:1009B000DC2FCC27C16FD06A2BC0C1E0D0E002C0D1
:1009C000CC0FDD1F2A95E2F720E2829FC00111249F
:1009D000C82BD92BDA681CC0DC2FCC27C46FD06A97
:1009E00017C0DC2FCC27C06FD06A12C08C2F8F703D
:1009F0000E94A00594E0D695C7959A95E1F7CF702F
:100A0000D0E0DC2FCC27D069C82B02C0C0E0D0E0FA
:100A1000CE01DF91CF9108958238910569F1B0F44C
:100A20008133910509F46DC048F48932910509F4C8
:100A300063C08A32910509F469C008958533910530
:100A400009F455C089339105B9F00895833E9105A5
:100A500069F138F4803E9105B1F0823E910509F1CB
:100A60000895863E9105A9F1873E9105B9F1843E2E
:100A7000910509F064C023C020917E0220FD4FC083
:100A800021FD4DC0089580917E0280FD44C080917B
:100A90007F0280FF44C080917E0284FD42C083EECD
:100AA0004DC080917E0282FF38C0F5CF80917E02DA
:100AB00082FD33C080917F0280FD31C0ECCF8091F8
:100AC0007F0281FF32C080917E0284FD2AC087EEC2
:100AD00035C080917E0283FF26C0F5CF80917E02D3
:100AE00083FD21C080917F0281FD1FC0ECCF8091EA
:100AF0007E0285FD1CC01DC080917E0285FD19C04F
:100B000016C080917E0286FD16C017C080917E02BD
:100B100086FD13C010C089E311C082EE0FC080EEC5
:100B20000DC080E00BC086EE09C084EE07C089E2EC
:100B300005C085E303C08AE201C081E390E0089527
:100B400090917E0292FF0DC0282F2871283019F451
:100B5000877F846006C0282F2471243011F48B7F96
:100B6000886093FF0DC0282F2871283119F4877EE3
:100B7000846106C0282F2471243111F48B7E886192
:100B800020917F0220FF0DC0382F3871383019F4C2
:100B9000877F816006C0382F3171313011F48E7F2C
:100BA000886021FF0DC0282F2871283119F4877E15
:100BB000816106C0282F2171213111F48E7E886158
:100BC00094FD877E089508950E944320811102C0FC
:100BD0000E94EB200E944E20809372020E945620B9
:100BE00090937F0280937E020E94E3050E94522030
:100BF000682F70E080E090E00E948B1D60915D02A4
:100C000070915E0280915F02909160020C94C31D0E
:100C1000E82FF0E0E657FD4F80810895089580EABF
:100C20008A95F1F7089500C008950C940F06089571
:100C30000C9417060C9418060C941706F894E82FD9
:100C4000E295EF70F0E031A1282F2F7081E090E065
:100C500001C0880F2A95EAF7982F9095932391A3C6
:100C600092A1892B82A37894089508950C94350657
:100C70000F931F93CF93DF930E94C10780910001D0
:100C800080910001811102C095E001C090E0909335
:100C9000950285E0891B8093940284E90E941E06D8
:100CA00087E90E941E0686EC0E941E0684E30E94CD
:100CB0001E0685E30E941E06CCE5D1E003E611E0A6
:100CC00089910E941E060C171D07D1F7E0E8F2E09B
:100CD000AAE8B2E011921D9282E0EA38F807D1F753
:100CE00085E00E9470070E945603DF91CF911F910B
:100CF0000F910C94CB070F931F93CF93DF9300D0EA
:100D000000D01F92CDB7DEB70E94A7076091950271
:100D1000882309F442C08E010F5F1F4F85E0F80160
:100D200011928A95E9F7862F90E0B80186579D4F7A
:100D30000E945112811116C08091AC018F5F809387
:100D4000AC01863030F1E0919402F0E0E657FD4FBF
:100D5000D801CE01069611921D92A817B907D9F7AE
:100D600011E018C01092AC01A0919402B0E0A65717
:100D7000BD4FF8019E012A5F3F4F10E081919C9189
:100D8000981711F08C9311E01196E217F307B1F761
:100D900001C010E00E945A030DC070E066577D4FFD
:100DA0008091940290E086579D4F0E947F120E948E
:100DB000360610E0812F0F900F900F900F900F903C
:100DC000DF91CF911F910F9108958F929F92AF92D3
:100DD000BF92CF92DF92EF92FF920F931F93CF9328
:100DE000DF9383E6A82E81E0B82EC0E8D2E098E633
:100DF000E92E91E0F92E912C01E010E06501F5015A
:100E00008081F894E82FE295EF70F0E021A18F70D7
:100E1000A80102C0440F551F8A95E2F7CA01922F1C
:100E2000982B91A392A18095892382A378940E9404
:100E30001306ECE5F1E020E030E0812C4191A42F95
:100E4000A295AF70B0E090968C9190E04F7002C088
:100E5000959587954A95E2F780FD07C0802F022E71
:100E600001C0880F0A94EAF701C080E0882A2F5F4A
:100E70003F4F2730310511F75FEFA51AB50AF6018C
:100E800080810E941E060E9415068881881619F02E
:100E9000888281E001C080E0982A2196EA14FB0450
:100EA00009F0ACCF6091950270E066577D4F292D17
:100EB00045E080E892E00E9471070E947B0699203D
:100EC00011F081E090E0DF91CF911F910F91FF90A1
:100ED000EF90DF90CF90BF90AF909F908F9008954C
:100EE0000895FF920F931F93CF93DF938C01F62EFB
:100EF000D72FC42F222349F081E08093AF010E94B5
:100F0000C6219093AE018093AD018091AF018823FB
:100F1000C1F08091AD019091AE010E94DE21069753
:100F200080F0EF2DFD2FD8014C2F50E0CD01801B1C
:100F3000910B841795071CF48D918193F7CF109234
:100F4000AF01DF91CF911F910F91FF900895809194
:100F5000B00181110DC00E942B29811102C082E0D5
:100F600001C081E08093B001823011F40E942629F3
:100F700081E09091B001913009F080E008950C94E7
:100F8000A7070E94BF07809300010E94A707811155
:100F90000C94281208950E94A707811102C00C9496
:100FA0002E120895833081F128F4813059F0823077
:100FB000D1F00895853009F449C0B8F1863009F4BC
:100FC00056C0089580910801262F30E0280F311D6A
:100FD0002F3F310524F4680F6093080108958FEFC7
:100FE00080930801089580910701262F30E0280F93
:100FF000311D2F3F310524F4680F609307010895D8
:101000008FEF80930701089580910601262F30E02D
:10101000280F311D2F3F310524F4680F609306011E
:1010200008958FEF80930601089580910501262F82
:1010300030E0280F311D2F3F310524F4680F6093F5
:10104000050108958FEF80930501089580910201B5
:10105000262F30E0280F311D2F3F310524F4680F73
:101060006093020108958FEF8093020108958091AB
:101070000101262F30E0280F311D2F3F310524F4C8
:10108000680F6093010108958FEF80930101089527
:10109000833011F128F4813049F0823091F00895C5
:1010A000853081F120F18630C1F1089580910801E9
:1010B000681720F4861B8093080108951092080198
:1010C000089580910701681720F4861B809307011B
:1010D000089510920701089580910601681720F481
:1010E000861B809306010895109206010895809151
:1010F0000501681720F4861B80930501089510925E
:101100000501089580910201681720F4861B8093E1
:10111000020108951092020108958091010168175B
:1011200020F4861B80930101089510920101089517
:101130000F931F9341E050E060E070E08A019B0153
:1011400004C0000F111F221F331F8A95D2F7C90157
:10115000B8010E948B1D1F910F910C9495198B3132
:1011600009F468C058F58B3009F486C078F48630ED
:1011700009F445C020F4853009F44BC07FC08730A6
:1011800009F44AC0883009F477C078C0803109F486
:1011900064C068F48E3009F071C08091720282FBE5
:1011A000222720F991E0922790FB82F94CC08631EA
:1011B00009F462C0893109F45FC060C08A32E1F08D
:1011C00060F4873209F455C028F48E3108F456C013
:1011D0008D5150C08932E9F051C0833450F48A33C4
:1011E00008F045C0853309F444C0883309F444C08D
:1011F00045C08334F1F142C00E94EB203DC0809194
:101200007202817F8E7F8093720281E08093B201AF
:1012100008950E945D0330C080917202982F9095CE
:10122000917090FB80F980937202911125C0897FA3
:10123000877F10C08091720281FB222720F991E004
:10124000922790FB81F9809372029923A9F08091F3
:1012500072028160809372020FC08091720283FBE0
:10126000222720F991E0922790FB83F9ECCF895354
:1012700001C080E00E94980881E0089580E0089510
:1012800080E008950C9440098E518A3030F4E82FA4
:10129000F0E0E359FE4F8081089580E00895CF93F8
:1012A000C82F8091B201813051F018F0823099F14D
:1012B0007DC00E94821F823209F07AC004C00E9461
:1012C000821F823261F48C2F0E944209811104C076
:1012D0008C2F0E94AF081DC081E090E01AC08C2FB7
:1012E0000E944009811114C0C43179F048F4CB3018
:1012F00079F0C03109F060C082E08093B20108C08B
:10130000C93219F0C83321F057C01092B20154C04D
:1013100081E0817053C0C93289F118F5C43171F18F
:10132000B0F4C73009F046C08EE18093080182E333
:10133000809307018AE08093060184E18093050190
:1013400088E08093020188E28093010133C082EE3D
:101350008C0F863078F58C2F0E9444098093B10160
:1013600029C0CE34E9F020F4CB3421F56AE013C073
:10137000C13579F0C235F1F461E00DC08091B10161
:10138000882319F01092B10115C081E08093B20159
:1013900015C061E006C08091B1010E94D2070AC069
:1013A0006AE08091B1010E94480804C01092B20125
:1013B00080E004C081E002C080E0ABCFCF9108950F
:1013C0008091B90180FF0BC06091060185E0689FA4
:1013D000B001112475956795759567952BC081FFB0
:1013E00009C06091060185E0689FB00111247595E0
:1013F000679520C082FF07C06091060185E0689F65
:10140000B001112417C09091B8019923D1F06091D7
:101410000501961788F72091060185E0289F900125
:101420001124929FA001939F500D112470E0CA01D6
:101430000E944C296038710540F46115710519F45A
:1014400006C065E070E0862F08958FE7089581E07B
:1014500008958091B90180FF08C06091020170E099
:10146000759567957595679521C081FF06C0609158
:10147000020170E07595679519C082FF04C0609104
:10148000020170E010C09091B701992399F060912A
:1014900001019617A0F780910201899FC0011124D4
:1014A00070E00E944C296038710540F461157105A7
:1014B00019F406C061E070E0862F08958FE7089563
:1014C00081E008958D3E21F40E94E009819504C0D9
:1014D0008E3E29F40E94E0098093BD0108958F3E5D
:1014E00021F40E94E009819504C0803F29F40E9404
:1014F000E0098093BC010895893F19F40E94290AEC
:1015000005C08A3F31F40E94290A81958093BE016B
:1015100008958B3F21F40E94290A819504C08C3FD5
:1015200029F40E94290A8093BF0108959FE0980F33
:10153000983078F421E030E0A90102C0440F551F33
:101540009A95E2F7CA019091BB01892B8093BB0168
:1015500008958D3F21F48091B90181600BC08E3FC9
:1015600021F48091B901826005C08F3F29F48091F8
:10157000B90184608093B90108958D3E39F490914A
:10158000BD0197FF35C01092BD0159C08E3E29F4B0
:101590009091BD011916BCF32BC09091BC018F3EF8
:1015A00029F497FF25C01092BC0149C0803F19F46F
:1015B0001916CCF31DC09091BE01893F29F419166C
:1015C000BCF41092BE013BC08A3F19F497FF10C0D3
:1015D000F8CF8B3F39F49091BF0197FF09C010926B
:1015E000BF012DC08C3F21F49091BF011916BCF3AF
:1015F0009FE0980F983080F421E030E0A90102C00C
:10160000440F551F9A95E2F7CA0180959091BB014E
:1016100089238093BB0113C08D3F21F48091B901D0
:101620008E7F0BC08E3F21F48091B9018D7F05C064
:101630008F3F29F48091B9018B7F8093B90180910C
:10164000BC01811106C08091BD01811102C01092C0
:10165000B8018091BE01811106C08091BF01811146
:1016600002C01092B70108950E94C6212091BC01CA
:10167000211104C02091BD01222321F09093B601D5
:101680008093B5012091BE01211104C02091BF01BA
:10169000222321F09093B4018093B3018AEB91E06F
:1016A0000C947E14EF92FF920F931F93CF93DF93CE
:1016B00000D000D000D0CDB7DEB786E0EAEBF1E095
:1016C000DE01119601900D928A95E1F7E090BC0140
:1016D000F090BD010091BE011091BF011092BC01BC
:1016E0001092BD011092BE011092BF01E11003C023
:1016F000FF2009F45DC08091B5019091B6010E9470
:10170000DE21AC019091B801992339F020910701B5
:1017100030E02417350758F04BC0209108018AE0CB
:10172000289F900111242417350718F041C09F3FCE
:1017300019F09F5F9093B801EE2061F00E94E009DC
:101740001E1414F09FEF01C091E0989F902D11247A
:101750009093BC01FF2061F00E94E0091F1414F077
:101760009FEF01C091E0989F902D11249093BD01AF
:101770003091BC013323E1F02091BD012223C1F05F
:1017800045EB3403C0011124992319F09093BC0157
:1017900003C081E08093BC0135EB2303C001112419
:1017A000992319F09093BD0103C081E08093BD019E
:1017B000011103C0112309F45DC08091B301909120
:1017C000B4010E94DE21AC019091B701992339F058
:1017D0002091030130E02417350758F04BC02091C9
:1017E00004018AE0289F900111242417350718F07E
:1017F00041C09F3F19F09F5F9093B701002361F0B4
:101800000E94290A101614F09FEF01C091E0989FE2
:10181000902D11249093BE01112361F00E94290A9A
:10182000111614F09FEF01C091E0989F902D1124A4
:101830009093BF013091BE013323E1F02091BF01AD
:101840002223C1F045EB3403C0011124992319F080
:101850009093BE0103C081E08093BE0135EB23036A
:10186000C0011124992319F09093BF0103C081E0B6
:101870008093BF018091BC0181110BC08091BD019B
:10188000811107C08091BE01811103C08091BF0109
:1018900081110E94340BEB82FC820D831E8386E053
:1018A000FE013196AAEBB1E001900D928A95E1F725
:1018B00026960FB6F894DEBF0FBECDBFDF91CF9155
:1018C0001F910F91FF90EF900895EAEBF1E086E011
:1018D000DF011D928A95E9F71092B8011092B701C5
:1018E0001092B9010895EF92FF920F931F93CF9337
:1018F000DF938B01682F11110AC0442329F0E82FD0
:10190000F0E0E45DFC4F6491762F862F75C0212FA7
:1019100030E0E82FF0E0442321F0E45DFC4FE49157
:10192000F0E046E0049FC0011124CFEFD0E0BE01FB
:101930000E9438294BEA4603C001479F900D1124AD
:10194000800F911D800F911D982F990F890FAE0167
:10195000421B530B4E9FD0014F9FB00D5E9FB00DA9
:1019600011249B2F189FA0011124452F55278E016C
:10197000041B150B0E9FA0010F9F500D1E9F500DB5
:1019800011247E01E81AF108E29E8001E39E100D09
:10199000F29E100D1124212F3327C21BD30BCE9F93
:1019A0009001CF9F300DDE9F300D11246230710504
:1019B000A9F048F46115710569F061307105C9F449
:1019C0008B2F752F0DC06430710581F058F0663093
:1019D000710579F47E2F8B2F932F0DC0832F7B2FD2
:1019E0009E2F09C08E2F7B2F952F05C08E2F732F12
:1019F00002C07E2F852F692FDF91CF911F910F910C
:101A0000FF90EF90089541E00E94730C08950E94AA
:101A1000030D0895CF93DF93762FE901682F842F6C
:101A20000E94070D798368838A83DF91CF9108959F
:101A300080919602982F9695913021F08170826066
:101A400080939602089588E090E00C946E29CF92DE
:101A5000DF92EF92FF926B017C010E94180DB7019B
:101A6000A60188E090E0FF90EF90DF90CF900C947B
:101A70008C29E6E9F2E083E0808311828FEF828394
:101A800083831482A1ECB1E012968C91129783604B
:101A900012968C9360817181828193810C94270DC1
:101AA00090919A02933018F49F5F90939A02882342
:101AB00051F06091960270919702809198029091F6
:101AC00099020C94270D089581E00C94500D90918B
:101AD0009A02992319F0915090939A02882351F019
:101AE000609196027091970280919802909199026C
:101AF0000C94270D089581E00C94670D70E00C9410
:101B0000DC0F60910A018091960280FF0AC08091EB
:101B1000090123E0829FC001112485569D4F0C943A
:101B20007E0D80910B0190910C01891780F7E82FB1
:101B3000F0E09F01220F331FE20FF31FE556FD4F28
:101B40001182108212828F5FF0CFE6E9F2E080818D
:101B50008E7F808360817181828193810E94270DB5
:101B6000E1ECF1E08281816082832FEF80E792E0F7
:101B7000215080409040E1F700C000000C94810D9E
:101B8000E6E9F2E080818E7F8083E1ECF1E0828102
:101B9000816082832FEF80E792E021508040904067
:101BA000E1F700C000000C94810D9091960290FF27
:101BB00016C090910B0120910C01921770F4E92F3F
:101BC000F0E0DF01AA0FBB1FEA0FFB1FE556FD4F38
:101BD0008183608342839F5FF0CF0C94810D0895D1
:101BE000EF92FF920F931F93CF93DF9300D01F923A
:101BF000CDB7DEB79091960290FF3DC0E22E142F34
:101C0000062FF82EE92FE695F0E0E958FE4F808187
:101C10008093C1019E7F923059F49E012F5F3F4F08
:101C20008F2D0E940A0D4B8169818A810E94D50DFA
:101C300080919702F81208C080919802081304C09E
:101C400080919902181729F08091C30182608093D6
:101C5000C301F09297020093980210939902EE202C
:101C600051F0609196027091970280919802909144
:101C700099020E94270D0F900F900F90DF91CF9146
:101C80001F910F91FF90EF900895E6E9F2E09181A6
:101C9000282F4381628188E0890F0C94F00D81E048
:101CA0000C94450EE6E9F2E09181282F4381628190
:101CB00088EF890F0C94F00D81E00C94520EE6E948
:101CC000F2E0628121E1620F08F46FEF282F438177
:101CD00081810C94F00D81E00C945F0EE6E9F2E056
:101CE000628121E1621B08F460E0282F4381818139
:101CF0000C94F00D81E00C946E0EE6E9F2E0438165
:101D000021E1420F08F44FEF282F628181810C946A
:101D1000F00D81E00C947D0EE6E9F2E0438121E1D3
:101D2000421B08F440E0282F628181810C94F00D61
:101D300081E00C948C0E20E00C94F00D80919602C2
:101D400080FF1DC081708260809396028091C301E4
:101D500081608093C301662351F060919602709177
:101D6000970280919802909199020E94270D4091CC
:101D7000990260919802809197020C949B0E0895AD
:101D8000682F81E00C949E0E81E00C94C00E682FA9
:101D90009091960296958FEF890F09F481E00C944B
:101DA0009E0E81E00C94C70E61E00C949E0EE6E955
:101DB000F2E080818160808386950C94D40E8091BE
:101DC000960280FD0C94A50D0C94D70E60E00C9447
:101DD0009E0E8091C001811131C00E94432081116B
:101DE00004C00E94EB200E94390D0E94230D6093D5
:101DF0009602709397028093980290939902809133
:101E0000C30183608093C3016E7F61F40E94390D2A
:101E10000E94230D6093960270939702809398021C
:101E2000909399020E94180D8091960280FF03C042
:101E300086950E94E60E81E08093C001089580910E
:101E4000C30108951092C301089525E0E6E9F2E088
:101E5000DC0101900D922A95E1F72091C1013091AA
:101E6000C2014091C301FC01258336834783089555
:101E70001F93CF93DF93EC01162F8F8180FF0FC04C
:101E8000888180FF0AC080919602816080939602CB
:101E9000888186950E949E0E02C00E94C00D8F818F
:101EA00081FF09C0212F4B816A818981DF91CF9108
:101EB0001F910C94F00DDF91CF911F91089588230D
:101EC00011F0FA0101C0FB0109941F93CF93DF9336
:101ED000FB01128111116BC0EC010E94821F827202
:101EE000CA3CFCE5DF0709F450C0C0F4C63CECE591
:101EF000DE07E1F148F4C43C9CE5D90759F178F5D7
:101F0000C33CDC4521F121C0C83C9CE5D90799F1CF
:101F1000B8F54FE45EE06CE57EE025C0CE3CFCE524
:101F2000DF0709F441C050F4CC3CECE5DE0791F149
:101F3000B0F549E85EE068E97EE015C0C73D8CE594
:101F4000D807A8F1CE35DD4591F111E030C00E94EF
:101F5000DF0E2DC041ED5EE064EC7EE004C044EC99
:101F60005EE061ED7EE00E945F0F21C04CE55EE027
:101F70006FE47EE0F8CF4AE75EE06BE67EE0F3CF09
:101F80004BE65EE06AE77EE0EECF48E95EE069E8B6
:101F90007EE0E9CF4BE75DE064E67DE0E4CF44E638
:101FA0005DE06BE77DE0DFCF81E00E94D40E812F02
:101FB000DF91CF911F910895539A2BB1277F3BB1A9
:101FC00038604FB7F894FC01CB01880F991F680F58
:101FD000791F6E0F7F1FE617F70789F0819198E050
:101FE0003BB9000000C087FF2BB9880F000000C07C
:101FF00000C000C02BB900C09A9591F7ECCF4FBF3D
:102000008FE594E00197F1F700C0000008950F9369
:102010001F93CF93DF93C42FD22FFC01828188239B
:10202000C9F04093C6010E94C6219093C5018093D8
:10203000C40180E28C0F883008F057C0C77081E07F
:1020400001C0880FCA95EAF7DF91CF911F910F91D8
:102050000C9408178091C601481330C08091C401C8
:102060009091C5010E94DE21883C910538F510E26F
:102070001D0FCD17B9F080E28C0F883040F4C77087
:1020800081E001C0880FCA95EAF70E940F17183047
:1020900028F581E09D2F977001C0880F9A95EAF787
:1020A0000E940817802F0E94FF161830F0F4D77096
:1020B00081E001C0880FDA95EAF70AC080E28C0F50
:1020C000883098F4C77081E001C0880FCA95EAF79C
:1020D000DF91CF911F910F910C940F17802FDF91FB
:1020E000CF911F910F910C94FF16DF91CF911F910B
:1020F0000F9108950F939C01CB01243F4CE53407C9
:1021000031F188F4293DFCE53F07D9F02A3D4CE543
:10211000340779F1283D3C45A9F506E221EE41EE70
:1021200068ED7CE52BC0263FFCE53F07E1F0A8F019
:10213000273F3C4539F507E225EE46EE67EF7CE5A3
:102140001DC007E225EE45EE69ED7CE517C006E20D
:1021500021EE40EE64EF7CE511C007E225EE44EE8F
:1021600065EF7CE50BC006E221EE42EE66EF7CE512
:1021700005C008E221E045EE6AED7CE50E9407100B
:1021800080E008C0FC018281882319F01092C6010A
:1021900001C081E00F910895CF93DF93EC01FB0123
:1021A0008281882309F41FC1C230FCE5DF0708F4EF
:1021B0001BC1C6319CE5D90738F09E012B5F3C4519
:1021C0002930310508F010C10E94562090937F02FB
:1021D00080937E02C031ECE5DE0709F4C3C008F04D
:1021E00041C0C8308CE5D80709F49AC0F0F4C43077
:1021F000ECE5DE0709F487C068F4C2308CE5D80747
:1022000009F477C0C330DC4509F0E3C080917E0259
:10221000826076C0C630ECE5DE0709F46EC008F0D7
:102220007BC080917E0288606BC0CC308CE5D80783
:1022300009F485C068F4CA30ECE5DE0709F474C01F
:1022400008F079C00E94951980917E02806858C07C
:10225000CE308CE5D80709F476C008F07FC08091B5
:102260007E028BC0CC3FECE5DE0709F44FC018F5C9
:10227000C3318CE5D80709F47DC078F4C131ECE5B1
:10228000DE0709F473C0C231DC4509F0A2C00E9428
:10229000951980917E028F7733C0C5318CE5D807C0
:1022A00009F472C008F486C0CB3FDC4509F091C048
:1022B00080917F023EC0C115FDE5DF0709F45FC0D4
:1022C00058F4CE3F9CE5D90709F444C008F43FC058
:1022D00080917F0282602DC0C230FDE5DF0709F4E6
:1022E00075C008F45DC0C330DD4509F072C080E000
:1022F0006EC080917E02816003C080917E02806109
:1023000080937E0266C080917E0211C080917F0220
:10231000826080937F025DC080917E028062F0CFF8
:1023200080917E028064ECCF80917E028860846020
:10233000E7CF8160EECF80917E028E7FE1CF8091EA
:102340007E028D7FDDCF80917E02877FD9CF809105
:102350007F0218C080917F028D7FDBCF80917E024B
:102360008F7ECECF80917E028F7DCACF80917E02FC
:102370008F7BC6CF80917E02877F8B7FC1CF80917C
:102380007F028D7F8E7FC5CF80917E0282FB2227C8
:1023900020F991E0922790FB82F990FB83F9B0CF6E
:1023A00080917F02982F909591708E7F892B90FB62
:1023B00081F9AFCF0E94951980917E0287FB222779
:1023C00020F991E0922790FB87F99ACF81E00E9453
:1023D000ED2080917E0290917F020E9467200E94F2
:1023E000951980E001C081E0DF91CF910895CF93EE
:1023F000DF9386319C4541F5EB010E94821F982FA7
:102400008A8120911E0130911F01882379F09A7AE8
:1024100081E009F480E08093C701911102C069E274
:1024200001C065E3C9010E9434210AC08091C7013F
:10243000811102C069E201C065E3C9010E94362131
:102440000E94D41F80E001C081E0DF91CF91089508
:1024500062E070E08EE091E00C94FD1262E070E0CA
:102460008EE091E00C9406130E941F0F882361F008
:1024700083ED91E00E94250F81E090E00E94DF1340
:10248000892B11F40C94220F08958091D201883089
:1024900039F460E083ED91E00E94380F1092D20190
:1024A0000895CF93DF93D62FC72F0E94341280E078
:1024B00090E00E94DF13892BF1F4ED2FFC2F80E0D8
:1024C00090E0DC01A353BE4F2C91219301968530FF
:1024D0009105B9F70E943922DC01CB010296A11DBA
:1024E000B11D8093C9019093CA01A093CB01B09311
:1024F000CC0181E001C080E0DF91CF910895CF93BE
:10250000DF93D62FC72F0E9445126091C9017091A9
:10251000CA018091CB019091CC010E941C22ED2F29
:10252000FC2F80E090E02191DC01A353BE4F2C935F
:10253000019685309105B9F7DF91CF9108958EE12D
:10254000489B02C08150E1F7489BFECF0895589800
:1025500080E28A95F1F7589A0895FC012AE02A95BD
:10256000F1F790E020E080E031E0261779F040E1DB
:102570004A95F1F7880F489B02C08160932700C0FD
:10258000000040E14A95F1F72F5FEFCF20E12A9557
:10259000F1F729B100C0000030E13A95F1F7217060
:1025A00092272081920F90830895EF92FF920F93CC
:1025B0001F93CF93DF931F92CDB7DEB719828C01A3
:1025C0007C01E60EF11C0E151F0559F00E949F12AA
:1025D00068E0CE0101960E94AD12F80181938F014F
:1025E000F2CF81E09981911180E00F90DF91CF913E
:1025F0001F910F91FF90EF9008959093DD018093CC
:10260000DC016093DB01509A589A08959093DD01A4
:102610008093DC016093DB015098589AE89AE9E6D0
:10262000F0E080818C7F80830895615091E001C04B
:10263000990F6A95EAF720E031E0992361F0492F7C
:10264000482319F0589A232701C0589840E24A9528
:10265000F1F79695F2CF222311F0589A01C05898BD
:1026600080E28A95F1F758980895FF920F931F938F
:10267000CF93DF93EC018C01060F111DC017D1071A
:1026800041F0F9900E94A71268E08F2D0E94151367
:10269000F5CFDF91CF911F910F91FF9008951F9279
:1026A0000F920FB60F9211240F931F932F933F9306
:1026B0004F935F936F937F938F939F93AF93BF934A
:1026C000EF93FF93CF93DF931F92CDB7DEB71982BD
:1026D0000E949F1267E0CE0101960E94AD12382F32
:1026E000369536953695932F96959570232F2570B0
:1026F000920F292F2370969596958770920F8913C4
:1027000048C08981811145C08091DB01831708F49D
:1027100040C080E18A95F1F7589A509AA2E0AA95B4
:10272000F1F700C00091DC011091DD01B8E03B9FA2
:10273000000D111D11245898F8016581662321F0C0
:10274000868197810E9435130E94A712F0E1FA95C5
:10275000F1F758985098589A80E18A95F1F7D80186
:1027600012966C911297662369F013968D919C9145
:1027700014970E94D512D801ED91FC91811105C0EA
:1027800082E004C0D801ED91FC9188E080830E9432
:102790009F120F90DF91CF91FF91EF91BF91AF9179
:1027A0009F918F917F916F915F914F913F912F9169
:1027B0001F910F910F900FBE0F901F9018950F93C0
:1027C0001F93CF93DF932091DB0130E02817390767
:1027D0000CF471C09C0193E0220F331F9A95E1F72E
:1027E000C091DC01D091DD01C20FD31FF894509A43
:1027F000589845E04A95F1F70000982F9695957006
:102800008570890F982F937086958695890F890119
:10281000082B0E94A71284E08A95F1F700C067E0B8
:10282000802F0E94151340E14A95F1F75098589A6D
:10283000489902C000C0FCCF87E090E0489B0EC0E2
:10284000019751F4509A589AE881F98181E0808388
:10285000789481E090E031C000C0F0CF6D816623B4
:1028600081F08E819F810E94D51281110AC0509AF9
:10287000589AE881F98182E08083789482E090E040
:102880001CC00E949F1280E28A95F1F75898509AD6
:1028900040E14A95F1F76A81662321F08B819C81A2
:1028A0000E9435130E94A712E881F9811082789462
:1028B00080E090E002C084E090E0DF91CF911F9132
:1028C0000F9108959093E3018093E2010895E091C0
:1028D000E201F091E301309721F00190F081E02DC9
:1028E000099480E00895E091E201F091E3013097CE
:1028F00021F00280F381E02D09940895E091E20136
:10290000F091E301309739F022E0DC012C93048050
:10291000F581E02D099408952091E0013091E101C5
:102920002817390771F09093E1018093E001E0915D
:10293000E201F091E301309721F00680F781E02D6C
:10294000099408952091DE013091DF01281739079D
:1029500071F09093DF018093DE01E091E201F0914C
:10296000E301309721F00084F185E02D099408956A
:102970000E94D2216093F3017093F4018093F501DA
:102980009093F6016093EF017093F0018093F10151
:102990009093F201089585B7806885BF85B78068F8
:1029A00085BF08950C94A70708950C94D4140C9433
:1029B000D4140C94D7140C94D4140C94DB140C94ED
:1029C000D4140E94CB1481E490E20E9465220E94FC
:1029D000DF140C94DD140E94D5140C94D4140E94BE
:1029E000BD210E9413220E9438060E94E90E0C9419
:1029F000D9149F92AF92BF92CF92DF92EF92FF9243
:102A00000F931F93CF93DF93CDB7DEB72A970FB6FF
:102A1000F894DEBF0FBECDBF0E94E50681110E9473
:102A2000B81485EEA82E81E0B82E00E010E0902EBC
:102A3000802F0E940806D82EF501C1905F01C8269C
:102A4000B1F40F5F1F4F0A30110589F78FEF8983AB
:102A50008A831B820E94C6218160782F9D838C838C
:102A600049815A816B818D810E9497152FC0809179
:102A7000720281FD0E940E06E12CFF24F3948C2D3E
:102A80008F21F1F00E94D214882399F0EE829F8268
:102A9000DF2081E009F480E088870E94C621816000
:102AA000782F9A8789874E815F8168858A850E9401
:102AB0009715F801EB51FE4F8081F826F08206C091
:102AC000E394FF0CF7E0EF12DACFBBCF0E94520B7A
:102AD0000E9467149091E4018917B9F00E9467146D
:102AE0008093E4012A960FB6F894DEBF0FBECDBFE7
:102AF000DF91CF911F910F91FF90EF90DF90CF90DA
:102B0000BF90AF909F900C94CC032A960FB6F89488
:102B1000DEBF0FBECDBFDF91CF911F910F91FF9010
:102B2000EF90DF90CF90BF90AF909F900895DF928D
:102B3000EF92FF920F931F93CF93DF93CDB7DEB742
:102B40002B970FB6F894DEBF0FBECDBFF42E052F26
:102B5000162FE72ED82E61110E94A21FFE0131967A
:102B600086E0DF011D928A95E9F77E2D4F2D502FCB
:102B7000612F8D2D9E810E944E1C2B960FB6F894CE
:102B8000DEBF0FBECDBFDF91CF911F910F91FF90A0
:102B9000EF90DF900895FC01808191810E94221FB7
:102BA0000895CF93882309F4A9C0C82F8238C1F4AF
:102BB0000E94671481FDA2C069E380911E0190917B
:102BC0001F010E9434210E94D41F2FEF81EE94E058
:102BD000215080409040E1F700C0000069E319C037
:102BE000833801F50E94671480FD88C063E58091F9
:102BF0001E0190911F010E9434210E94D41F2FEFCB
:102C000081EE94E0215080409040E1F700C0000048
:102C100063E580911E0190911F010E943621CF91A2
:102C20000C94D41F8438C1F40E94671482FD66C0DE
:102C300067E480911E0190911F010E9434210E943F
:102C4000D41F2FEF81EE94E0215080409040E1F7B7
:102C500000C0000067E4DDCF8CEF8C0F813AF8F400
:102C60008C2F0E944F09811149C06C2F80911E0149
:102C700090911F010E94FE20882349F06C2F8091C3
:102C80001E0190911F010E9436210E94D41F6C2FBB
:102C900080911E0190911F010E943421C0CF80E2DB
:102CA0008C0F883048F4C77081E001C0880FCA9546
:102CB000EAF70E94851FB3CFEBE5EC0FE33040F459
:102CC000F0E0E955FE4F808190E0CF910C948C1498
:102CD000E8E5EC0FE73150F4F0E0EE0FFF1FE758A6
:102CE000FE4F80819181CF910C94A214CD3E30F0A3
:102CF0008C2F0E94620ACF910C94340BCF910895CF
:102D0000882309F464C0823879F40E94671481FF33
:102D10005EC069E380911E0190911F010E943421E1
:102D20000E94D41F69E310C08338B1F40E94671475
:102D300080FF4DC063E580911E0190911F010E94AC
:102D400034210E94D41F63E580911E0190911F01E0
:102D50000E9436210C94D41F843879F40E946714A1
:102D600082FF35C067E480911E0190911F010E948F
:102D700034210E94D41F67E4E7CF9CEF980F913A6B
:102D800010F4682FE1CF90E2980F983050F48770DC
:102D900091E001C0990F8A95EAF7892F0E948B1F55
:102DA000D9CF9BE5980F933020F480E090E00C940D
:102DB0008C1498E5980F973120F480E090E00C9403
:102DC000A2148D3E20F00E94BD0A0C94340B08958D
:102DD0001F93CF93DF93182FEB010E94D1152097FB
:102DE00041F08FE99FE00197F1F700C000002197C3
:102DF000F6CF812FDF91CF911F910C9480168933EC
:102E000019F060E070E002C060E570E00C94E81634
:102E1000882321F00E94851F0C94D41F08958823D5
:102E200021F00E948B1F0C94D41F0895CF92DF9243
:102E3000EF92FF920F931F93CF93DF937C01062FA6
:102E4000C72FFC01D281158112951F700E945A1F55
:102E5000882399F0DD2389F08C2F807F803421F046
:102E600080E2800F883048F082E00E9424200E9497
:102E70005A1F91E0D82ED92601C0D12CCC2EC29455
:102E80008FE0C8228C2D90E0FC01EA5AFF4F0C9491
:102E900060298C2F807FCF70882311F0C295C07F6E
:102EA000DD2399F0CC2309F48DC180E2800F8830B6
:102EB00010F0011104C08C2F0E94851F03C08C2FBD
:102EC0000E94951F0E94D41F7DC1802F0E948016F2
:102ED000CC2309F49CC180E2800F883010F00111EE
:102EE00004C08C2F0E948B1F03C08C2F0E949B1F3D
:102EF0000E94D41F8CC18C2F807FCF70803211F044
:102F0000C295C07F002319F00130C9F022C0DD2333
:102F100071F0112341F0113031F40E94B51F8C2B58
:102F20000E94BD1F74C10E94B51F8C2B1DC01123B0
:102F300019F0113009F46BC10E94CA1F25C0DD23AE
:102F400021F0163008F063C10EC0153008F05FC1E3
:102F50001BC0DD2361F0112331F0F701858180FF73
:102F600031C18F7085838C2F0E94081750C11123A7
:102F700059F0093309F037C1FFEF27EE83E0F15034
:102F800020408040E1F72DC18C2F0E940F173FC1D8
:102F90008C2F86958695837019F0813061F037C14A
:102FA000DD2321F0802F9C2F937002C080E090E001
:102FB0000E948C1434C1DD2321F0802F9C2F93704C
:102FC00002C080E090E00E94A21429C1802FDD237E
:102FD00019F00E94620A02C00E94BD0A0E94340BCE
:102FE0001EC18C2F837009F045C0D11114C1402F30
:102FF000429546954770440F440F602F6F70862F9F
:1030000090E0A0E0B0E0042E04C0880F991FAA1F32
:10301000BB1F0A94D2F704FF10C00FE010E020E0BD
:1030200030E004C0000F111F221F331F4A95D2F752
:10303000009510952095309503C000E010E09801B0
:10304000C695C695C370BC01CD01602B712B822B38
:10305000932BC23049F058F4C13019F00E949F1DE3
:10306000DAC00E948D1DD7C00E94B11DD4C00E943D
:103070008B1DD1C0DD2319F08C2F817001C0869586
:10308000882309F4C8C0402F429546954770440FE5
:10309000440F602F6F70862F90E0A0E0B0E0042E08
:1030A00004C0880F991FAA1FBB1F0A94D2F704FF00
:1030B00010C00FE010E020E030E004C0000F111F4E
:1030C000221F331F4A95D2F7009510952095309511
:1030D00003C000E010E09801C695C695C370BC011E
:1030E000CD01602B712B822B932BC23049F058F409
:1030F000C13019F00E94641E8EC00E94521E8BC007
:103100000E94761E88C00E94C51D85C0CF70DD2339
:1031100039F08C2F0E94EB1D802F0E9408177BC076
:10312000802F0E940F178C2F0E940C1E74C0023F2C
:1031300001F128F4003F41F0013FA1F03FC0033FFF
:10314000F9F0043F39F13AC0DD2341F0153008F0C1
:103150005EC08C2F8F710E94311E59C0163008F04E
:1031600056C0F7CFDD2339F08C2F8F710E94EB1DF5
:103170004EC0DD23C9F38C2F8F710E940C1E47C0F7
:10318000DD2329F08C2F8F710E94D61D40C00E9434
:10319000D11D3DC0DD2349F0CF718C2F0E94EB1D66
:1031A00063E08C2F0E94092032C081E00E9424201D
:1031B000123068F182E00E94242029C0DD2331F022
:1031C000112391F2802F0E94D11521C0112399F271
:1031D000093349F49FEFE7EEF3E09150E040F0400F
:1031E000E1F700C00000802F0E94801610C04C2F15
:1031F0004F70602FC7010E94D5030E94FC1C0FC0B6
:103200004C2F4F70602FC7010E94D80308C088EF71
:103210008C0D843020F40E9467140E94CC03DD20C2
:10322000C9F00E94561F80FD15C0F70112820E944E
:10323000501F0E94EB1DC7010E944B190E94501F96
:10324000DF91CF911F910F91FF90EF90DF90CF9082
:103250000C940C1EDF91CF911F910F91FF90EF9076
:10326000DF90CF9008950F931F93CF93DF93EC01DE
:10327000688179818A810E942D1F8C010E94881E9D
:103280000E94791DB801CE010E941617DF91CF91DF
:103290001F910F910895CF93DF93EC01988189815D
:1032A0002B813C81232B31F08F3F31F481E09F3F14
:1032B00019F403C081E001C080E080FD19C0CE0197
:1032C0000E946C0381110CC00E945A1F882381F058
:1032D0008A81882369F082E0DF91CF910C942420C9
:1032E000CE010E943319CE01DF91CF910C944B0394
:1032F000DF91CF91089580E090E00E948C1480E0EF
:1033000090E00E94A2140E94A21F0E94B21F0E947D
:10331000D41F0E94650C0C94340B80911E01909177
:103320001F010E9438210C947B190E94921F0C945B
:103330008D19E92FE295EF704E2F50E0FA01329788
:10334000EE30F105B0F4EA59FF4F0C946029803F4C
:1033500091F018F4883E68F40EC0843F51F40BC01D
:10336000883E48F0813F29F406C093FB882780F906
:10337000089580E0089581E008950E94221F0E9430
:1033800099190895CF93DF9300D000D01F92CDB745
:10339000DEB70F900F900F900F900F90DF91CF91AD
:1033A0000895CF93DF9300D000D000D0CDB7DEB723
:1033B00026960FB6F894DEBF0FBECDBFDF91CF913A
:1033C00008951F93CF93DF93C091F80116E0809189
:1033D000F901C81799F0D0E01C9FF0011D9FF00D76
:1033E0001124E650FE4F40815181628173818481B6
:1033F00095810E94D1192196C770E9CFDF91CF91B5
:103400001F91089540912A0250912B0260912C0245
:1034100070912D0280912E0290912F020C94D1195F
:103420000F931F93CF93DF9380912F0282958F701C
:1034300009F05DC080912C02882309F458C0809166
:10344000F8011091F90160912A0270912B02C0914C
:103450002D02D0912E0291E06F3F09F090E0292FCC
:1034600006E0811709F443C0209721F07F3F21F047
:1034700030E003C031E001C0322F90E030FD34C0B5
:10348000089FF001099FF00D1124DF01A650BE4FE7
:1034900011963C911197371327C03C91361324C0E5
:1034A00012963C91129731111FC013964D915C9169
:1034B00014974C1B5D0B483C5105B0F480912F02D2
:1034C0008F70806180932F02E150FE4F80818F705A
:1034D000806180838AE292E00E944B19DF91CF9154
:1034E0001F910F910C94E11901968770BACFDF916B
:1034F000CF911F910F9108959F92AF92BF92CF925B
:10350000DF92EF92FF920F931F93CF93DF93CDB78C
:10351000DEB761970FB6F894DEBF0FBECDBF8C014A
:1035200085E0F801DE011D9601900D928A95E1F784
:10353000F80140815181E28090912A0260912B0232
:1035400020912D0230912E022115310531F06F3F6F
:1035500031F481E09F3F19F403C081E001C080E0B5
:10356000F82FF1709F2E80FD46C1F801A380B48032
:103570008AE2C82E82E0D82EF0902C02F501E21BE0
:10358000F30BFF2009F4DFC080912F02E83CF10526
:1035900008F09BC0282F207F09F052C0561313C09B
:1035A000491311C0FE2CE1100EC08F708061809312
:1035B0002F020E94021AC6010E944B1980912F020D
:1035C000F801858358C1AB2831F05F3F31F481E0C9
:1035D0004F3F19F403C081E001C080E080FD03C0CB
:1035E00081E08E2502C080E090E0F82FF170FF2E80
:1035F00080FF1CC08091F8012091F90136E082170C
:1036000009F417C190E0389FF001399FF00D1124A3
:10361000E650FE4F6181561306C06081461303C019
:103620006281E61203C001968770E9CFFE2CEE207E
:1036300009F421C180912F02816080932F025AC02A
:10364000561306C0491304C0E11002C0F8019FC020
:103650004D875E878D859E850E94BD19882379F1EF
:10366000EE2069F120912F02822F82958F7090E0D9
:10367000029774F080912A0290912B0298878F8391
:103680001986BB86AA862C87CE0107960E944B1905
:1036900086E0F801AAE2B2E001900D928A95E1F786
:1036A0000E94101A0E94021A0DC0561729F14D8768
:1036B0005E878D859E850E94BD1981112CC0C80131
:1036C0000E944B19FF24F394D6C0282F207F69F75E
:1036D0007A2DB98AA88A6E2D89890E94C2198AE238
:1036E00092E00E944B1986E0F60111928A95E9F763
:1036F0000E94021AF12CBFC04913D9CFE110D7CFD5
:10370000F8018583C8010E944B1986E0F6011192E9
:103710008A95E9F7B0C0EE2091F220912F02822F16
:1037200082958F7090E002970CF4B2CF80912A02BC
:1037300090912B029A8389831B82BD82AC822E8357
:10374000CE010196A3CFE83CF10508F047C0FE2C5E
:10375000EE2009F4B4CF561330C049132EC0209187
:103760002F0220FD21C0822F82958F70482F50E0BC
:1037700041155105C9F0F80125834F30510541F03D
:103780008F5F982F9295907F822F8F70892B8583E2
:10379000C8010E944B1986E0F801AAE2B2E001904C
:1037A0000D928A95E1F742C086E0F801AAE2B2E004
:1037B00001900D928A95E1F75EC04D875E878D85F9
:1037C0009E850E94BD19811163CF80912F02816077
:1037D00080932F02C8010E944B194DC07A2DB98ADF
:1037E000A88A6E2D89890E94C21986E0F60111927D
:1037F0008A95E9F71BC0EE2009F461CF4D875E87FB
:103800008D859E850E94BD19F82E882309F457CF17
:1038100086E0F801AAE2B2E001900D928A95E1F704
:103820008AE292E00E94CB150E94101A0E94021AAE
:1038300022C04D875E878D859E850E94221F292F7D
:1038400022952F70223028F49F7039F0811105C025
:103850000BC0243028F49F7049F4805E883020F03B
:10386000C8010E944B199F2CF92C05C0F8019581C5
:10387000907F99F7F9CF8F2D61960FB6F894DEBF40
:103880000FBECDBFDF91CF911F910F91FF90EF90B1
:10389000DF90CF90BF90AF909F9008951F93CF93EC
:1038A000DF93CDB7DEB72C970FB6F894DEBF0FBE0F
:1038B000CDBF4F83588769877A878B879C87CE01D6
:1038C00007960E947C1A8823D1F09F8188852A85DB
:1038D0003B85232B31F08F3F31F481E09F3F19F47A
:1038E00003C081E001C080E080FD47C04F81588562
:1038F00069857A858B859C850E94D1193EC086E0BA
:10390000FE013796DE01119601900D928A95E1F73E
:10391000FF81E8856A857B856115710531F0EF3F90
:1039200031F481E0FF3F19F403C081E001C080E081
:1039300080FD23C02091F90130E0C9010196877014
:1039400099274091F80150E084179507F1F1F98328
:10395000EA837D836C8396E0929FD001939FB00DA4
:103960001124A650BE4FFE01319601900D929A95FA
:10397000E1F78093F9010E94E11916E08091F801C6
:103980009091F901891771F1189FC0011124865097
:103990009E4F0E947C1A882329F1E091F8011E9F16
:1039A000F0011124E650FE4F408151816281738104
:1039B000848195810E94D1198091F80190E001964F
:1039C000877099278093F801D9CF0E94951910929A
:1039D000F9011092F801EAE2F2E086E0DF011D92BF
:1039E0008A95E9F72C960FB6F894DEBF0FBECDBFCF
:1039F000DF91CF911F910895EF92FF920F931F9344
:103A0000CF93DF938C01892B09F46CC0F12CEE2449
:103A1000E394E8012196F8018491843740F48430DE
:103A200008F051C0813081F0823019F15BC08537D8
:103A300009F444C0A8F19CE7980F903708F052C0F1
:103A40008F770E94801641C00E5F1F4FFE01849148
:103A500090E2980F983050F48770FE2D01C0FF0F50
:103A60008A95EAF78F2F0E94A51F14C00E94D115D6
:103A70002DC00E5F1F4FFE01849190E2980F983089
:103A800060F48770FE2D01C0FF0F8A95EAF78F2F33
:103A90000E94AB1F0E94D41F19C00E94801616C03E
:103AA0000E5F1F4FFE01C491CC2381F08FE99FE090
:103AB0000197F1F700C00000C150F6CF0E5F1F4F15
:103AC000FE01F49003C00E94D1158E018F2D882332
:103AD00009F49FCFEFE9FFE03197F1F700C0000054
:103AE0008150F5CFDF91CF911F910F91FF90EF9013
:103AF0000895089508950C947A1D0C947B1D0E94DE
:103B00007D1D6093610270936202809363029093C3
:103B100064020C947B190C947F1D0F931F930091EA
:103B20006102109162022091630230916402602B65
:103B3000712B822B932B1F910F910C947F1D0F9350
:103B40001F930091610210916202209163023091F3
:103B5000640260237123822393231F910F910C949D
:103B60007F1D0F931F9300916102109162022091BB
:103B700063023091640260277127822793271F9187
:103B80000F910C947F1D0C947A1D0E94C31D6093AD
:103B90005D0270935E0280935F02909360020C94CA
:103BA0007B1960E070E0CB010C94C51D0F931F934F
:103BB00041E050E060E070E08A019B0104C0000F2A
:103BC000111F221F331F8A95D2F7C901B8011F9117
:103BD0000F910C94C51D0F931F9341E050E060E0DE
:103BE00070E004C0440F551F661F771F8A95D2F7F7
:103BF00080915D0290915E02A0915F02B09160029F
:103C00008A019B01082B192B2A2B3B2BC901B801D8
:103C10001F910F910C94C51D0F931F9341E050E02D
:103C200060E070E004C0440F551F661F771F8A953F
:103C3000D2F7409550956095709580915D02909176
:103C40005E02A0915F02B09160028A019B0108238D
:103C500019232A233B23C901B8011F910F910C940A
:103C6000C51D0F931F9341E050E060E070E004C079
:103C7000440F551F661F771F8A95D2F780915D020A
:103C800090915E02A0915F02B09160028A019B0157
:103C9000082719272A273B27C901B8011F910F912F
:103CA0000C94C51D0F931F9300915D0210915E024D
:103CB00020915F0230916002602B712B822B932B3D
:103CC0001F910F910C94C51D0F931F9300915D02DE
:103CD00010915E0220915F02309160026023712397
:103CE000822393231F910F910C94C51D0F931F9353
:103CF00000915D0210915E0220915F02309160029E
:103D000060277127822793271F910F910C94C51D5F
:103D1000089527E0929F800D1124E82FE695E695FF
:103D2000E695877051E001C0550F8A95EAF785E066
:103D3000E89FF0011124E05DFD4F20E030E070E0ED
:103D40004081CB01022E02C0969587950A94E2F736
:103D50008170819584278523842781932F5F3F4F2E
:103D60002530310569F7089527E0929F800D1124D1
:103D7000682F669566956695982F977085E0689F81
:103D8000B001112440E050E080E0FB01E40FF51F9A
:103D9000E05DFD4F208130E0092E02C03695279569
:103DA0000A94E2F721703327042E01C0220F0A94EF
:103DB000EAF7822B4F5F5F4F4530510531F7089589
:103DC000BF92CF92DF92EF92FF920F931F93CF9308
:103DD000DF938C01C0905D02D0905E02E0905F02A4
:103DE000F09060028091610290916202A091630262
:103DF000B0916402C82AD92AEA2AFB2ACFE1D0E08E
:103E0000D701C6010C2E04C0B695A7959795879546
:103E10000A94D2F780FD04C0219790F7B12C07C017
:103E2000BC2EB8018C2F0E94F4030197A9F38B2DAF
:103E3000DF91CF911F910F91FF90EF90DF90CF9086
:103E4000BF900895CF93DF93EC010E94E01EBE0166
:103E50000E94F403DF91CF9108951F93CF93DF93D6
:103E6000EB019091F701992321F0CB010E94221FD1
:103E700013C0882349F0CB010E94E01E182F682F41
:103E8000CE010E94891E04C0CB010E94B41E182FCF
:103E9000BE01812F0E94F403DF91CF911F910895FD
:103EA0008091650285958595859508958091650237
:103EB0008770089590916502977081E009F480E021
:103EC000089590917F0292FB222720F9281751F044
:103ED00080FB92F990937F0280917E0290917F0205
:103EE0000C946720089580917F0282FB882780F9D7
:103EF00091E089270C94611F81E00C94611F80E0A0
:103F00000C94611F80917102089590917102892B28
:103F10008093710208958095909171028923809316
:103F20007102089510927102089590917002892B88
:103F300080937002089580959091700289238093F8
:103F40007002089510927002089590916F02892B6B
:103F500080936F020895809590916F0289238093DA
:103F60006F02089510926F0208958091660208957D
:103F700008950C94B81F0C94B91F90917F0292FD84
:103F800008C090916602981721F0809366020C9405
:103F9000BB1F089580916602882329F01092660263
:103FA00080E00C94BB1F0895E0911E01F0911F0169
:103FB000809171028083E0911E01F0911F01908138
:103FC00080917002892B8083E0911E01F0911F0186
:103FD000908180916F02892B808380916602882373
:103FE00081F0E0911E01F0911F019081892B808367
:103FF00080911E0190911F010E94F22081110E9468
:10400000CA1F80911E0190911F010C9473140C948F
:10401000B81F90917F0292FD10C098E0899F900197
:104020001124262B209365020E94EB1D80916502CE
:104030008595859585950C9407200C94EB1D109221
:10404000650280E00C940720209165028095822310
:1040500080936502982F977041F430E0482F082E26
:10406000000C550B2417350721F490917F0292FF25
:1040700007C08595859585950E940C1E0C941F2080
:10408000089580E0089580E090E00E94742921E086
:104090008A3E9E4F09F020E0822F089582E090E052
:1040A0000C94662983E090E00C946629CF9384E019
:1040B00090E00E946629C82F82E290E00E94662963
:1040C0002C2F30E0A901582BCA01CF910895CF932E
:1040D000C92F682F84E090E00E947A296C2F82E239
:1040E00090E0CF910C947A29AB01BC018FE090E075
:1040F0000C948C29AB01BC0183E190E00C948C29D9
:1041000060E070E0CB010C947A2060E070E0CB01BD
:104110000E9474200C9480206AEE7EEF80E090E094
:104120000E94982960E082E090E00E947A2960E095
:1041300083E090E00E947A2910926102109262025C
:10414000109263021092640260E084E090E00E94AA
:104150007A2960E082E290E00E947A2960E085E0BE
:1041600090E00E947A2960E086E090E00E947A293F
:104170006FEF87E090E00E947A2940E050E0BA01BA
:1041800088E090E00E948C2960E08DE090E00E9441
:104190007A2940E050E0BA0188E190E00E948C2941
:1041A00060E087E190E00E947A2940E050E0BA01A7
:1041B0008CE190E00E948C2960E070E080E290E069
:1041C0000E94982940E050E0BA0188E190E00E9406
:1041D0008C290C9485200C948C20682F8EE090E024
:1041E0000C947A29FC01329697E080E0915029F0F6
:1041F00021912223D9F38F5FF9CF0895662349F0E7
:10420000FC01329608962191621729F0E817F90708
:10421000D1F780E0089581E008959C01FC01329679
:104220009FEF80E04191461789F09F3F19F44111BB
:1042300001C0982F8F5F8630A9F79F3F39F0F901B1
:10424000E90FF11D97FDFA956283089508959C0189
:104250002A5F3F4FFC014281461301C01282019642
:1042600082179307B9F708950C940D210C94272118
:10427000029626E0FC0111922A95E9F70895089527
:104280000C943F210C943F21CF930E9442210E9425
:10429000E5060E944021C0E08C2F0E940806811193
:1042A00004C0CF5FCA30C1F701C081E0CF9108954B
:1042B0000C943F210C9458218091D102843049F113
:1042C0000E945A2180E00E94CC031092730220E4E5
:1042D00088E190E00FB6F894A895809360000FBE37
:1042E0002093600083B7817F846083BF83B7816040
:1042F00083BF7894889583B78E7F83BF0FB6F89479
:10430000A8958091600088618093600010926000A1
:104310000FBE08950C943F210E9495190E946714C6
:104320000E94CC030C948A211F920F920FB60F9219
:1043300011248F939F93AF93BF9380917302811148
:1043400013C08091C5029091C602A091C702B0919E
:10435000C8024196A11DB11D8093C5029093C6026B
:10436000A093C702B093C802BF91AF919F918F9164
:104370000F900FBE0F901F90189582E084BD93E0C0
:1043800095BD9AEF97BD80936E0008952FB7F8946E
:104390008091C5029091C602A091C702B091C80257
:1043A0002FBF08952FB7F8946091C5027091C6028F
:1043B0008091C7029091C8022FBF08959C014FB70A
:1043C000F8948091C5029091C602A091C702B09165
:1043D000C8024FBF821B930B089578941F920F92CF
:1043E0000FB60F9211248F939F93AF93BF93809139
:1043F000C5029091C602A091C702B091C802019671
:10440000A11DB11D8093C5029093C602A093C7025F
:10441000B093C802BF91AF919F918F910F900FBE43
:104420000F901F9018951092C9021092CA02109214
:10443000CB021092CC020895CF92DF92EF92FF92BE
:104440006B017C010E94A70781110EC00E94D2213E
:10445000C61AD70AE80AF90AC092C902D092CA025B
:10446000E092CB02F092CC02FF90EF90DF90CF90E1
:1044700008950F931F930E94A707882321F01F918F
:104480000F910C94D2210E94D2210091C902109167
:10449000CA022091CB023091CC02600F711F821FA3
:1044A000931F1F910F91089587E797E79093010855
:1044B000809300089AE088E10FB6F894A89580935D
:1044C00060000FBE90936000FFCF9093AB0180938C
:1044D000AA01089580917C020895CF93DF9300D0C4
:1044E0001F92CDB7DEB79091D102943019F5898330
:1044F0007B836A8382E08093E9008FEF9091E800EC
:10450000815095FD06C095ED9A95F1F70000811157
:10451000F5CF8091E80085FF0DC040E050E063E0FA
:1045200070E0CE0101960E9488248091E8008E7789
:104530008093E8000F900F900F90DF91CF91089536
:10454000BC0184E00C946D22BC0183E00C946D22CC
:1045500022E02093E9002FEF3091E800215035FD53
:1045600006C035ED3A95F1F700002111F5CF209105
:10457000E80025FF0BC040E050E066E070E00E94DC
:1045800088248091E8008E778093E8000895CF9387
:10459000DF9321E02093E9002FEF3091E8002150D4
:1045A00035FD06C035ED3A95F1F700002111F5CF44
:1045B0002091E80025FF14C0EC0140E050E068E0E5
:1045C00070E00E9488248091E8008E778093E80054
:1045D00088E0FE01A4E7B2E001900D928A95E1F730
:1045E000DF91CF9108958091D002811109C00E947E
:1045F00019260E9476268091E20084608093E20072
:1046000008951092D002089508950895089542E003
:1046100061EC81E00E94922542E261EC82E00C9420
:1046200092258091D302833009F460C030F4813048
:1046300071F0823009F499C008958A3009F485C078
:104640008B3009F46BC0893009F0A7C020C080917D
:10465000D202813A09F0A1C08091E800877F80935F
:10466000E8008091D6029091D702892B21F468E06E
:1046700084E792E003C060E080E090E070E00E9498
:10468000D3248091E8008B778093E800089580918F
:10469000D202813209F081C08091D6029091D70276
:1046A000029708F07AC08091E800877F8093E80045
:1046B0008091E80082FD05C08091D1028111F8CF80
:1046C0006CC02091F3008091F20090E0922B029751
:1046D00029F48091F1008B7F813021F48091F100E9
:1046E00080937C028091E8008B7753C08091D20246
:1046F000813A09F052C08091D6029091D702892B5D
:1047000009F04BC08091E800877F8093E80080919A
:10471000E80080FFFCCF80912A0136C08091D20250
:104720008132D9F58091D6029091D702892BA9F5D3
:104730008091E800877F8093E8000E94C7258091E0
:10474000D40280932A010C9495198091D20281326F
:1047500021F58091E800877F8093E8000E94C725BB
:104760008091D50280937D0208958091D202813A92
:10477000A1F48091E800877F8093E8008091E800B1
:1047800080FFFCCF80917D028093F1008091E80052
:104790008E778093E8000C94C725089584B7877FAF
:1047A00084BF0FB6F894A8958091600088618093CB
:1047B0006000109260000FBE90E080E80FB6F894A1
:1047C00080936100909361000FBE0E94E1140E94EB
:1047D00019260E9476268091E20084608093E20090
:1047E00078940E940B290E94EF1480E291E00E94CD
:1047F00062148091D1028530A9F48091D102853074
:1048000079F40E945C218091CF028823B1F30E9449
:104810004421882391F30E9472240E949519EDCFC0
:104820000E948C210E94F9140E94EB14E2CF0C9498
:104830001924292F332723303105C9F060F42130A2
:10484000310581F02230310509F044C08BE390E05E
:104850002EE634E043C021323105E1F02232310549
:1048600049F138C082E190E029EA34E037C0992765
:104870008130910549F028F0029761F5ECE2F4E00F
:1048800005C0EAE6F4E002C0E4E5F4E0849190E0DB
:104890009F0124C06115710541F061307105D1F4AB
:1048A00089E090E029E934E019C089E090E020E84F
:1048B00034E014C06115710541F06130710551F4A7
:1048C0008BE790E02BEB34E009C080E490E026E336
:1048D00035E004C080E090E020E030E0FA01318370
:1048E0002083089580E189BD82E189BD09B400FE7D
:1048F000FDCF8091D8008F7D8093D8008091E0001B
:1049000082608093E0008091E00081FDFCCF0895FB
:10491000CF92DF92EF92FF920F931F93CF93DF938B
:10492000EC018B017A010E94E625811133C0E1146C
:10493000F10439F0F70180819181081B190BC80F30
:10494000D91FC12CD12C0115110519F18091E80056
:1049500085FD16C08091E8008E778093E800E11411
:10496000F10449F0F70180819181C80ED91ED182EE
:10497000C08285E00FC00E94E625882321F30AC08B
:1049800089918093F10001501109FFEFCF1ADF0ADE
:10499000DACF80E0DF91CF911F910F91FF90EF90E0
:1049A000DF90CF9008952091D8023091D902261738
:1049B000370748F06115710539F42091E8002E772A
:1049C0002093E80001C0B901FC0120E061157105E8
:1049D00079F18091D1028823F1F18530F1F1809154
:1049E000E80083FD3CC08091E80082FD2EC08091EC
:1049F000E80080FFEBCF2091F3008091F20090E07F
:104A0000922B6115710551F08830910538F4219190
:104A10002093F100615071090196F3CF21E00897CE
:104A200009F020E08091E8008E778093E800CECFF7
:104A30002111CFCF0AC08091D102882361F0853047
:104A400061F08091E80083FD0AC08091E80082FF58
:104A5000F2CF80E0089582E0089583E0089581E038
:104A600008952091D8023091D9022617370748F0CF
:104A70006115710539F42091E8002E772093E80044
:104A800001C0B901FC0120E06115710591F180912F
:104A9000D102882309F440C0853009F43FC08091D9
:104AA000E80083FD3DC08091E80082FD2FC0809129
:104AB000E80080FFE9CF2091F3008091F20090E0C0
:104AC000922B6115710559F08830910540F42491BD
:104AD0002093F1003196615071090196F2CF21E0E7
:104AE000089709F020E08091E8008E778093E80035
:104AF000CBCF2111CCCF0AC08091D102882361F0A5
:104B0000853061F08091E80083FD0AC08091E80063
:104B100082FFF2CF80E0089582E0089583E0089557
:104B200081E00895982F973068F59093E9009817E1
:104B300039F07091EC002091ED005091F00003C02D
:104B4000242F762F50E021FD02C09F5FECCF3091E3
:104B5000EB003E7F3093EB003091ED003D7F3093D2
:104B6000ED003091EB0031603093EB007093EC007E
:104B70002093ED005093F0002091EE0027FDE5CF4B
:104B800080E008958F708093E90081E0089580911E
:104B9000D20287FF11C08091E80082FD05C080919C
:104BA000D1028111F8CF11C08091E8008B770BC042
:104BB0008091D102882349F08091E80080FFF8CFEE
:104BC0008091E8008E778093E80008952091E400BA
:104BD0003091E50095E64091EC00842F817040FF14
:104BE00023C08091E80080FD1DC08091D102882300
:104BF00099F0853099F08091EB0085FD11C04091CE
:104C0000E4005091E5002417350729F3915011F085
:104C10009A01E1CF84E0089582E0089583E0089549
:104C200081E0089580E008954091E80042FFDDCFE3
:104C300008950E9487260E948F26E0EEF0E0808192
:104C400081608083E8EDF0E080818F77808319BCFC
:104C5000A7EDB0E08C918E7F8C9380818F7E8083D6
:104C60001092D00208950F931F93CF93DF930E9469
:104C700087260E948F26C8EDD0E088818F778883B1
:104C800088818068888388818F7D888319BC109291
:104C9000D1021092CD021092CF021092CE0200EEFD
:104CA00010E0F80180818B7F808388818160888318
:104CB00042E060E080E00E949225E1EEF0E0808139
:104CC0008E7F8083E2EEF0E080818160808380814E
:104CD00088608083F80180818E7F808388818061F5
:104CE0008883DF91CF911F910F910895E8EDF0E057
:104CF00080818F7E8083E7EDF0E08081816080831A
:104D000084E082BF81E08093D0020C943326E8EDEA
:104D1000F0E080818E7F80831092E20008951092EF
:104D2000DA001092E10008951F920F920FB60F92D1
:104D300011242F933F934F935F936F937F938F93A0
:104D40009F93AF93BF93EF93FF938091E10082FF16
:104D50000BC08091E20082FF07C08091E1008B7F51
:104D60008093E1000E940A298091DA0080FF1FC031
:104D70008091D80080FF1BC08091DA008E7F8093E5
:104D8000DA008091D90080FF0DC080E189BD82E109
:104D900089BD09B400FEFDCF81E08093D1020E945D
:104DA000F32205C019BC1092D1020E940123809108
:104DB000E10080FF19C08091E20080FF15C0809162
:104DC000E2008E7F8093E2008091E2008061809318
:104DD000E2008091D80080628093D80019BC85E001
:104DE0008093D1020E9405238091E10084FF30C0AE
:104DF0008091E20084FF2CC080E189BD82E189BD01
:104E000009B400FEFDCF8091D8008F7D8093D8003B
:104E10008091E1008F7E8093E1008091E2008F7E9F
:104E20008093E2008091E20081608093E2008091B3
:104E3000CD02882311F084E007C08091E30087FD54
:104E400002C081E001C083E08093D1020E9406236A
:104E50008091E10083FF29C08091E20083FF25C09B
:104E60008091E100877F8093E10082E08093D1020E
:104E70001092CD028091E1008E7F8093E1008091BD
:104E8000E2008E7F8093E2008091E2008061809357
:104E9000E20042E060E080E00E9492258091F00014
:104EA00088608093F0000E940423FF91EF91BF91EE
:104EB000AF919F918F917F916F915F914F913F91B2
:104EC0002F910F900FBE0F901F9018951F920F9269
:104ED0000FB60F9211242F933F934F935F936F93CD
:104EE0007F938F939F93AF93BF93CF93DF93EF9372
:104EF000FF93C091E900CF708091EC00D82FD17062
:104F000080FDD0E81092E9008091F000877F8093C7
:104F1000F00078940E94AA271092E9008091F00096
:104F200088608093F000CD2BCF70C093E900FF9193
:104F3000EF91DF91CF91BF91AF919F918F917F9131
:104F40006F915F914F913F912F910F900FBE0F90F6
:104F50001F9018951F93CF93DF93CDB7DEB7AA9715
:104F60000FB6F894DEBF0FBECDBFE2EDF2E0809148
:104F7000F100819322E0EA3DF207C9F70E94112374
:104F80008091E80083FF2EC18091D2029091D302DC
:104F9000492F50E04A30510508F024C1FA01EC587D
:104FA000FF4F0C946029803821F0823809F01AC133
:104FB00008C08091CE029091CF02992389F082603F
:104FC0000FC08091D6028F70873008F00BC180939C
:104FD000E9008091EB0085FB882780F91092E900B9
:104FE0009091E800977F9093E8008093F1001092F1
:104FF000F100D1C0282F2D7F09F0F4C0882319F0CB
:10500000823061F0EFC08091D402813009F0EAC0B3
:10501000933009F080E08093CF022EC08091D402BB
:1050200081112AC08091D6028F702FEF280F263071
:1050300008F0D8C08093E9002091EB0020FF1CC04D
:10504000933021F48091EB00806214C09091EB00CA
:1050500090619093EB0021E030E0A90102C0440F81
:10506000551F8A95E2F74093EA001092EA0080917A
:10507000EB0088608093EB001092E9008091E800DB
:10508000877F8093E8000E94C725ACC08111AAC029
:105090001091D4021F778091E3008078812B809358
:1050A000E3008091E800877F8093E8000E94C72595
:1050B0008091E80080FFFCCF8091E30080688093BE
:1050C000E300111102C082E001C083E08093D102AD
:1050D00089C08058823008F085C08091D4029091B8
:1050E000D5028C3D53E0950779F583E08A838AE207
:1050F00089834FB7F894DE01139620E03EE051E239
:10510000E32FF0E050935700E49120FF03C0E295B5
:10511000EF703F5FEF708E2F90E0EA3010F0C7968F
:1051200001C0C0968D939D932F5F243149F74FBFE7
:105130008091E800877F8093E8006AE270E0CE010A
:1051400001960E94D32416C06091D6027091D702B6
:10515000AE014F5F5F4F0E941724BC01892B09F4F9
:1051600041C09091E800977F9093E80089819A81EF
:105170000E9431258091E8008B778093E80032C04F
:10518000803881F58091E800877F8093E8008091E6
:10519000CD028093F1008091E8008E7772CF81116B
:1051A00021C08091D4029091D50299270297D4F41E
:1051B0008091E800877F8093E8008091D4028093FB
:1051C000CD020E94C7258091CD02811106C0809139
:1051D000E30087FD02C081E001C084E08093D1023A
:1051E0000E9407238091E80083FF0AC08091E800B5
:1051F000877F8093E8008091EB0080628093EB00D2
:10520000AA960FB6F894DEBF0FBECDBFDF91CF9147
:105210001F9108950895CF938091D1028823A1F022
:10522000C091E900CF709091EC00892F817090FDC2
:1052300080E8C82B1092E9008091E80083FD0E946D
:10524000AA27CF70C093E900CF9108950E94192634
:105250001092D1020895E8EDF0E0808180618083B2
:105260008AE18A95F1F700C08091D9008170089594
:10527000AA1BBB1B51E107C0AA1FBB1FA617B7077C
:1052800010F0A61BB70B881F991F5A95A9F7809598
:105290009095BC01CD01089597FB072E16F400945C
:1052A00007D077FD09D00E94382907FC05D03EF4CD
:1052B000909581959F4F0895709561957F4F0895C2
:1052C000EE0FFF1F0590F491E02D0994F999FECFA0
:1052D00092BD81BDF89A992780B50895A6E1B0E006
:1052E00044E050E00C94A029A8E1B0E042E050E096
:1052F0000C94A029262FF999FECF92BD81BDF89A72
:10530000019700B4021639F01FBA20BD0FB6F89409
:10531000FA9AF99A0FBE08950396272F0E947B29C7
:105320000E947A29252F0E947B29242F0C947B2907
:105330000196272F0E947B290C947A29DC01CB014E
:10534000FC01F999FECF06C0F2BDE1BDF89A319695
:1053500000B40D9241505040B8F70895F894FFCF33
:10536000012808641E140A321E000E000E0EC80129
:1053700004C90105CD01D20108D301000000670274
:105380006A22C722A822A422A02201E200E900EAA0
:1053900000B500B600B700CD008301CC008A0192B1
:1053A0000194012102230224022502260227022A57
:1053B00002B300B4006F007000818283F5F6F7310C
:1053C0003332369497C634350000000000010203E2
:1053D000040506070809000001E200E900EA00B53B
:1053E00000B600B700CD008301CC008A0192019481
:1053F000012102230224022502260227022A02B3E7
:0A54000000B4006F00700081828389
:00000001FF
